:020000040800F2
:10000000E0630120710200086D3E0008632F0008C4
:10001000353C0008A50A0008454F00080000000014
:10002000000000000000000000000000B101000816
:100030005D0C0008000000000D020008C546000825
:100040008B0200088B0200088B020008F1400008B8
:100050008B0200088B0200088B0200088B0200084C
:100060008B0200088B0200088B0200088B0200083C
:100070008B0200088B0200088B0200088B0200082C
:100080008B0200088B0200088B02000800000000B1
:100090000000000000000000000000008B020008CB
:1000A0008B0200088B0200088B0200088B020008FC
:1000B0008B02000889470008954700088B0200085A
:1000C0008B0200088B0200088B0200088B020008DC
:1000D0008B0200082D4F0008394F00080000000077
:1000E0008B0200088B0200088B0200080000000051
:1000F0000000000000000000000000008B0200086B
:10010000000000008B0200088B0200088B02000830
:1001100000000000000000000000000000000000DF
:100120008B0200088B020008A10B00088B0200085C
:100130008B0200080000000000000000000000002A
:100140000000000000000000000000008B0200081A
:100150008B0200088B020008AD0B00088B02000820
:100160008B0200088B020008000000000000000065
:10017000000000000000000000000000000000007F
:10018000000000008B0200080000000000000000DA
:100190008B0200088B020008DFF810D000F0EAFBA9
:1001A0000048004751560208AFF30080E063012089
:1001B0002C4B19680868B0E8F04F80F30988BFF34A
:1001C0006F8F4FF0000080F311887047000000002F
:1001D00008480068006880F308884FF0000080F34A
:1001E000148862B661B6BFF34F8FBFF36F8F00DF25
:1001F00000BF00BF08ED00E0DFF80C00016841F42B
:1002000070010160704700BF88ED00E0EFF30980E6
:10021000BFF36F8F134B1A681EF0100F08BF20ED4D
:10022000108A20E9F04F106009B44FF0500080F3BD
:100230001188BFF34F8FBFF36F8F2BF0C3FD4FF0CB
:10024000000080F3118809BC19680868B0E8F04F15
:100250001EF0100F08BFB0EC108A80F30988BFF3BE
:100260006F8F7047CC020020EFF3058070470000CD
:100270000648804706480047FEE7FEE7FEE7FEE740
:10028000FEE7FEE7FEE7FEE7FEE7FEE77947000848
:10029000990100082DE9F05F0546002092469B4633
:1002A00088460646814640241BE02846414647468C
:1002B000224600F0C8FA53465A46C01A914110D35C
:1002C00011461846224600F0AFFA2D1A67EB0108D6
:1002D0004F4622460120002100F0A6FA17EB000944
:1002E0004E41201EA4F10104DFDC484631462A4677
:1002F0004346BDE8F09F10B5431A934209D28318D4
:10030000881803E010F8011D03F8011D521EF9D2F0
:1003100010BD40EA01039B0703D009E008C9121F82
:1003200008C0042AFAD203E011F8013B00F8013BAF
:10033000521EF9D210BDD2B201E000F8012B491EC5
:10034000FBD270470022F6E710B513460A46044672
:100350001946FFF7F0FF204610BD30B505462A4686
:100360000B4612F8010B13F8014B08B1A042F8D06C
:100370001CB1002802D06D1CF1E7284630BD421C9C
:1003800010F8011B0029FBD1801A704710B500221C
:1003900000E0521C835C8C5CA34201D1002BF8D19D
:1003A000D8B2E1B2401A10BD034611F8012B00F893
:1003B000012B002AF9D1184670472DE9FE4F8046DF
:1003C00081EA0300C00F0C46009021F0004123F0A9
:1003D0000045B8EB0200A94105D2404621469046AF
:1003E0001C460B46024623F00040104347D0270D21
:1003F000C7F30A00C3F30A510290401A0190402843
:100400006BDAC3F3130040F4801B0098924620B1CE
:100410000023D2EB030A63EB0B0B01985946C0F1A2
:100420004002504600F000FA06460D465046594636
:10043000019A00F018FA10EB08006141002487EAE5
:10044000115284EAE7731A4340D0009A62B3019ACA
:10045000012A4FEA075215DC001B61EB02014FF045
:10046000004202EA0752CDE90042001C41F580112A
:1004700032462B4600F018FA03B0BDE8F08F404634
:100480002146F9E7001B61EB0201001C41F58013D6
:1004900000185B412018A2F5001747EB030140EA62
:1004A000D570B6196D4111E06D084FEA360645EA80
:1004B000C0754FEA0752001B61EB0201001C41F5B9
:1004C000801149084FEA30000019514132462B464D
:1004D00003B0BDE8F04F00F0D8B900980122400009
:1004E0000023D0EB020263EBE073009821464FEA51
:1004F000E074B8EB000061EB0401E9E783F000432E
:100500005BE781F0004158E72DE9FE4F81EA0304E3
:1005100004F0004421F0004100944FF0000B23F060
:10052000004350EA01045ED052EA03045BD0C3F3F7
:100530000A54C1F30A552C44A4F2F3340194A0FBED
:100540000254C1F3130141F48011C3F3130343F4C4
:10055000801301FB024400FB034E840A970A44EA1D
:10056000815447EA8357A4FB076802958D0A05FB6F
:1005700007854FEA932C04FB0C542705029D4FEA94
:10058000065847EA1637B5EB08056EEB070C870EE1
:10059000920E47EA811742EA8312A7FB0201B6EBEB
:1005A0000B0164EB00042B0D43EA0C335E1844EBA3
:1005B0001C50DA465146E7FB0201C5F313044FEA2B
:1005C0000B3343EA14534FEA0432019C43EA060317
:1005D000A4F10C040294009CCDE900B400F064F98D
:1005E00003B0BDE8F08F00200146F9E72DE9F04D9A
:1005F00081EA030404F0004B21F0004514464FF05B
:10060000000A23F0004150EA050220D054EA01021A
:100610001DD0C5F30A570246C5F31303C1F31300F7
:10062000C1F30A5640F4801543F48013A7EB060883
:10063000101BD64608F2FD3873EB050002D308F113
:10064000010801E092185B41B8F1000F03DA0020C5
:100650000146BDE8F08D00204FF480110646844627
:100660000EE0171B73EB050705D3121B63EB0503A5
:1006700006434CEA010C49084FEA300092185B41EE
:1006800050EA0107EDD152EA030012D082EA0400D9
:1006900083EA0501084305D0101BAB4106D20122B5
:1006A000002306E000224FF0004302E06FF0010259
:1006B00053101AEB06004CEB085110EB0A0041EB0B
:1006C0000B01BDE8F04D00F0E0B80EB5C10F80EAB7
:1006D000E0700844CA07002140F233438DE80E0061
:1006E0000A460B4600F0E0F803B000BD0EB540F23C
:1006F000334102910021CDE900110A460B4600F07A
:10070000D3F803B000BD70B5C1F30A5201F0004543
:100710000024C1F3130140F2FF3341F480119A42E7
:1007200001DA002070BD40F233439A42A2F2334214
:1007300003DC524200F087F800E090402C43F1D0F7
:10074000404270BDC1F30A5210B5C1F3130140F22B
:10075000FF3341F480119A4201DA002010BD40F2CB
:1007600033439A42A2F2334203DC524200F06BF868
:1007700010BD904010BD00F0004230F000400AD0A3
:10078000C10D01F56071C0F3160042EA0151C208C3
:1007900040071143704700200146704730B5041EE2
:1007A00071F1000404DB4FF00044404264EB0101AE
:1007B000141E73F1000405DB1C464FF00043524247
:1007C00063EB04038B4208BF824230BD30B5041E88
:1007D00071F1000404DB4FF00044404264EB01017E
:1007E000141E73F1000405DB1C464FF00043524217
:1007F00063EB0403994208BF904230BD30B50B460D
:10080000014600202022012409E021FA02F59D4240
:1008100005D303FA02F5491B04FA02F52844151E14
:10082000A2F10102F1DC30BD202A04DB203A00FAFB
:1008300002F1002070479140C2F1200320FA03F337
:10084000194390407047202A04DB203A21FA02F035
:100850000021704721FA02F3D040C2F120029140FA
:10086000084319467047202A06DBCB17203A41FA85
:1008700002F043EAE07306E041FA02F3D040C2F12D
:100880002002914008431946704710B5141E73F1B9
:10089000000408DA401C41F1000192185B411A4340
:1008A00001D120F0010010BD2DE9F04D92469B468C
:1008B00011B1B1FA81F202E0B0FA80F22032904632
:1008C000FFF7B2FF04460F4640EA0A0041EA0B0177
:1008D00053465A46084313D0114653EA010019D033
:1008E000C8F140025046FFF7AEFF05460E4650469F
:1008F00059464246FFF798FF084305D0012004E01F
:1009000020463946BDE8F08D0020054346EAE076F2
:100910002C4337430A986305E40AA0EB0800002241
:10092000FD0A44EA47540A3002D500200146E9E7AF
:10093000010510196941DDE9084500196941BDE863
:10094000F04DA2E7C1F30A52C1F3130140F2FF33A5
:1009500041F480119A4202DA00200146704740F2C9
:1009600033439A42A2F2334202DC5242FFF76BBF9A
:10097000FFF75ABF064C074D06E0E06840F0010360
:1009800094E8070098471034AC42F6D3FFF708FC10
:100990008C220308AC22030870B58C1810F8015B98
:1009A00015F0070301D110F8013B2A1106D110F808
:1009B000012B03E010F8016B01F8016B5B1EF9D10C
:1009C0002B0705D40023521E0DD401F8013BFAE792
:1009D00010F8013BCB1A921C03E013F8015B01F8FD
:1009E000015B521EF9D5A142D8D3002070BD000092
:1009F00008B502F063FD0025234C42F210774FF05A
:100A0000FF382E4638462BF099F8414620692BF0E6
:100A1000A9FD03F073FB607868B302F05DFF4FF44B
:100A20007A7302226946002026F0E6F8022806DBE7
:100A30009DF80000D02802D19DF8010010B1A078E7
:100A400018B11AE00025A67017E06D1CEDB2032D59
:100A500013D366700DA1012002F058FC0122082179
:100A60000E4800F035FD00224FF400410C4800F024
:100A70002FFD002501E003F0FBF900231A4619467B
:100A800020692BF0C3FBBDE7140000204D515454E6
:100A900020646973636F6E6E6563740000040240C6
:100AA00000000240FEE7000070B50346AAB14FF611
:100AB000FF704AF201040CE013F8012B50400022B1
:100AC000C50702D084EA500000E04008521C082A02
:100AD000F6DB491EC9B2EFD270BD094DFF200246B8
:100AE00005F5807606E000BF13F8014B4440285D11
:100AF0005040325D491EC9B2F6D240EA022070BDB4
:100B0000B01B0308074841780078081A4FF4967123
:100B100000F5967090FBF1F201FB1200C0F59670A3
:100B2000C0B27047A80200202DE9F0470C465FEAEA
:100B3000000804D01CB1FFF7E5FFA04202D200205C
:100B4000BDE8F08725F0CEFA134F14484FF496799C
:100B50007E78C6F59675AC42304409D822464146A7
:100B6000FFF7C9FB3119B1FBF9F209FB12100EE0D6
:100B70002A464146FFF7BFFB661B08EB05013246DC
:100B80000648FFF7B8FB96FBF9F109FB1160787096
:100B900025F0DAFA2046D3E7A8020020E01501206C
:100BA000014800F021BA000004060020014800F0CE
:100BB0001BBA00006406002001681823CAB2103A6C
:100BC000B2FBF3F2054B6FF30901032A9B5CC3658B
:100BD00000D9091D816508467047000078CC0208DD
:100BE00010B5014600208B698A6A4FF0C07453B17A
:100BF000B3F5005F15D072B1012A0CD0022A0AD0D9
:100C0000032A09D104E01AB1012A06D0022A03D12D
:100C1000C96AC90100D5012010BDC96AA142FAD034
:100C200010BD002AF7D0012AF2D0022AF3D0032AFD
:100C3000F3D010BD30B50468256825F48025256003
:100C4000046863608368402B036803D09960006880
:100C5000C26030BD9A600068C16030BD704700005E
:100C600040F6B834034800F06EFC20462AF066FFD8
:100C7000F8E70000500400202DE9F047ADF5027DB3
:100C800017468946044680A803F040FA0028FAD1A6
:100C90002046FFF774FB82B24FF47A7321461F4857
:100CA00002F00EF9002400F019FC0546A0464FF4AE
:100CB000FF7A6E4613E000BF00F010FC05469DF879
:100CC00000020A2815D00D2804D0544502D830550A
:100CD000641CA4B280A803F019FA0028ECD100F03B
:100CE000FDFB401BB842F5D302200DF5027DBDE8A7
:100CF000F08706F80480B9F1000006D00146684686
:100D0000FFF72BFB08B10020EFE705A16846FFF7CE
:100D100024FB08B10120E8E70024DBE7740500208C
:100D20004552524F520000000A4601A1FFF7A4BFEE
:100D30004F4B000072B6FEE7094810B5017859B173
:100D400001690022052909DAD0E902349C4205D262
:100D5000491C0161012010BD002010BD0261FBE7AC
:100D6000B40200202DE9F041104E4FF48005A0B0F0
:100D70000020C6E901050E4F2C464FF400088022E2
:100D80002146684603F012FA0098B84203D1803435
:100D9000B4604445F3D3B068404500D3B56001204A
:100DA000F560307020B0BDE8F0810000B402002092
:100DB000EFBEADDE10B50F48A0B00178002916D007
:100DC000C468803CB4F5800F11D380222146684668
:100DD00003F0ECF908490098884208D18017009088
:100DE00003F06CFB80222146684603F00DFA20B028
:100DF00010BD0000B4020020EFBEADDE2DE9F041D1
:100E00001D4C0646A0B02078884648B120460025F3
:100E10006169AF1E8068052907DB6561E06008E055
:100E20004FF0FF3020B0BDE8F081E168814202D38D
:100E300065613846F6E78022684603F0B7F90F4946
:100E40000098884202D0A068E060F1E7BDF8082071
:100E500030460DF10A01FFF74EFABDF8080035548F
:100E6000BDF80810A8F80010E0688030E060606904
:100E7000401C60610020D5E7B4020020EFBEADDE6B
:100E800070B51D4C0646A0B020780D4628B1742DD3
:100E900006D96FF0010020B070BD4FF0FF30FAE7C7
:100EA000FF2280216846FFF746FA1448009000F0C0
:100EB00015FB0190ADF808502A4631460DF10A00A5
:100EC000FFF719FAA0688030B0F5000F04D34FF493
:100ED0008000A06003F078FAA068010501D103F05A
:100EE00073FA80226846A16803F08EF9A06880300A
:100EF000A0600020CFE70000B4020020EFBEADDE0E
:100F000010B5140006D001441A46204603F04EF9ED
:100F1000002010BD012010BD10B5140006D0014402
:100F20001A46204603F070F9002010BD012010BDC4
:100F30002DE9F0410446876D00F0D0FA064694F89A
:100F400035000025022806D08020606584F83450E2
:100F50000120BDE8F0812068016821F016010160E0
:100F60002068416921F080014161206C08B9A06CC2
:100F700020B12068016821F0080101602068016843
:100F800021F0010101600CE000F0A8FA801B0528A7
:100F900007D920206065032084F8350084F8345098
:100FA000D7E720680068C007EED194F85C103F20B6
:100FB0008840B860012084F8350084F8345000205F
:100FC000C7E790F83510022903D080214165012040
:100FD0007047052180F835100068016821F0010193
:100FE00001600020704700002DE9F84304464FF0EF
:100FF0000009CDF8009063484FF41651A56D0068C4
:10100000B0FBF1F72E6894F85C10082000FA01F1AB
:1010100031420FD021680A6852070BD50A6822F0C6
:1010200004020A6094F85C108840A860606D40F08B
:101030000100606594F85C104FF0010808FA01F0B7
:10104000304208D021684969090604D5A860606D5E
:1010500040F00200606594F85C1004208840304243
:1010600008D021680968890704D5A860606D40F040
:101070000400606594F85C1010208840304218D05D
:1010800021680968090714D5A86020680168490328
:1010900004D50068000308D5A16C07E00168C90504
:1010A00003D4016821F008010160216C09B12046D8
:1010B000884794F85C1020208840304231D0216865
:1010C0000968C9062DD5A86094F835000528206860
:1010D000016806D0490347D5006800031DD4616C40
:1010E0001CE021F0160101602068416921F08001B7
:1010F0004161206C08B9A06C20B12068016821F022
:101100000801016094F85C103F208840A86084F8D2
:10111000358084F83490216D1FE0E16B09B12046E1
:101120008847606D00282BD0606DC00714D0052063
:1011300084F835002068016821F001010160009801
:10114000401C0090B84203D820680068C007F6D160
:1011500084F8358084F83490E16C002910D001B017
:101160002046BDE8F04308470168C905D5D40168A9
:1011700021F01001016084F8358084F83490CCE7C8
:10118000BDE8F883100000202DE9F041044600F08E
:10119000A5F906465CB1022084F83500002584F8E4
:1011A00034502068016821F0010101600DE0012048
:1011B000BDE8F08100F092F9801B052805D92020B8
:1011C0006065032084F83500F2E720680068C007F6
:1011D000F0D12268116820480140D4E90103184386
:1011E000D4E903363343184363691843A3691843AA
:1011F000E3691843236A18430843616A042903D149
:10120000D4E90B1319430843106020684069666AEB
:1012100020F0070130460E43012704280CD1A06AB4
:101220000643E06A40B12046FFF7DAFC20B14020D7
:10123000606584F83570BAE7206846612046FFF79C
:10124000BBFC94F85C203F2191408160656584F887
:1012500035700020ACE700003F8010F02DE9F04130
:101260000446866D90F83400002501280DD0012039
:1012700084F8340094F835700020012F07D084F8EA
:10128000340002252846BDE8F0810220FBE7022752
:1012900084F8357060652046FFF7CCFC94F85C104C
:1012A0003F208840B0602068016841F0160101606D
:1012B000206C20B12068016841F0080101602068BD
:1012C000016841F001010160DCE7000070B50446EF
:1012D00000F004F90546601C02D00448007804447C
:1012E00000F0FCF8401BA042FAD370BD04000020BF
:1012F0002DE9F84FDFF8B8A10022012403254FF0B3
:101300000F090AF1040BAAF1040E00BF0B6804FADE
:1013100002F63340B34273D10F7907F00307012F70
:1013200001D0022F16D187684FEA420805FA08FC5F
:1013300027EA0C07D1F80CC00CFA08FC4CEA070CA1
:10134000C0F808C04768B7430E79C6F30016964048
:101350003E4346600E79F643B6070DD0C768560087
:1013600005FA06FC27EA0C07D1F808C00CFA06FCBF
:101370004CEA070CC0F80CC00E7906F00306022EEA
:1013800010D1D60800EB8608D8F8206057074FEA3E
:10139000D76C09FA0CF7BE430F6907FA0CF737430D
:1013A000C8F8207006684FEA420C05FA0CF7BE43F5
:1013B0000F7907F0030707FA0CF7374307604E6809
:1013C00016F4403F6DD03B4E376847F48047376096
:1013D000366822F0030706F480460096364E07EB87
:1013E000060CDCF8086897073F0F09FA07F826EAA9
:1013F0000806DFF8C880404503D14FF000081EE022
:101400004FE0DFF8BC80404502D14FF0010816E004
:10141000DFF8B080404502D14FF002080FE0DFF85E
:10142000A880404502D14FF0030808E0DFF89C8017
:10143000404502D14FF0040801E04FF0070808FAD8
:1014400007F848EA0608CCF80888DAF8006057463A
:10145000D1F804C09E435FEACC2C00D51E433E6009
:10146000DBF800605F46D1F804C09E435FEA8C2C35
:1014700000D51E433E60DEF800607746D1F804C018
:101480009E435FEA8C3C00D51E433E60084F083FF8
:101490003E68D1F804C09E435FEACC3C00D51E43B1
:1014A0003E60521C102AFFF431AFBDE8F88F0000F7
:1014B000083C014044380240003001400000024036
:1014C0000004024000080240000C024000100240EC
:1014D0000AB1816170470904FBE700000148806898
:1014E000704700000400002070B5040013D021688C
:1014F0004CF6CC400860216845F255500860D4E9AC
:10150000000141602168A0688860FFF7E7FF054699
:1015100041F601060DE0012070BD00BFFFF7DEFFC0
:10152000401BB04205D92068C068800701D0032065
:1015300070BD2068C0688007F0D121684AF6AA20F3
:101540000860002070BD00684AF6AA2101600020F2
:10155000704700000248816802781144816070473A
:10156000040000200B4810B5016841F400710160CF
:10157000016841F480610160016841F4807101609B
:10158000032000F09FF80F2000F006F800F050F85C
:10159000002010BD003C024030B505461F4887B012
:1015A0000024016841F004010160006806A900F010
:1015B0000400009001A800F0DBF90498A8B100F045
:1015C000F7F940001649174AB0FBF1F11648491ED9
:1015D000026040F2E732C0E90324C0E901148461EB
:1015E00001F068F8040003D015E000F0E1F9E9E744
:1015F0000D4801F0ABF804000DD11E2000F034F8C6
:10160000102D07D2002229461E2000F03BF8074883
:10161000056000E0012407B0204630BD403802409C
:1016200040420F0000080040C406002008000020CF
:101630000C4882B0016841F480410160006800F408
:10164000804000900748001F016841F08051016010
:101650000068002200F0805000900F21901E02B020
:1016600000F010B844380240002809DB00F01F02E7
:10167000012191404009800000F1E020C0F80011F4
:1016800070470000F0B40E4B1B680C46C3F30223F6
:10169000C3F10705042D00D90425191D072901D21E
:1016A000002300E0DB1E012606FA05F1491E214059
:1016B00099409E40761E16403143F0BC03F082BC38
:1016C0000CED00E0064900F0070208684FF6FF0342
:1016D000184040EA0220034A1043086070470000A7
:1016E0000CED00E00000FA052DE9F843044600681F
:1016F0004FF00109C1074FF0000601D1400729D57D
:10170000DFF82081C8F86860FFF7E8FE0746464D1D
:1017100005E000BFFFF7E2FEC01B022859D8286889
:101720000001F7D4A068217B800140EA0170616864
:1017300008433D4984310860C8F86890FFF7CEFE41
:10174000074604E0FFF7CAFEC01B022841D82868FC
:101750000001F7D52078800752D533484030016822
:1017600041F0805101600068304D00F080500090E1
:10177000286840F480702860FFF7B0FE074604E058
:10178000FFF7ACFEC01B022823D82868C005F7D598
:10179000254D7035286810F4407020D0218A01F45E
:1017A000407181421BD02868214920F44070C1F863
:1017B00000900E6028602868C00710D0FFF78EFEEA
:1017C000064641F2883707E0FFF788FE801BB842E3
:1017D00002D90320BDE8F88328688007F4D5216981
:1017E0001148C1F301220830032A12D0016821F404
:1017F000F81101602868218AC1F30B0108432860B1
:101800002078000703D50B49207DC1F8E0010020B6
:10181000E0E70268084B22F4F81219400A4302601C
:10182000E8E7000000004742003802400070004036
:10183000400E474200104742FFFCFF0F2DE9F047E2
:101840000E46050065D0DFF81481D8F80000F7B225
:1018500000F00700B04207D288F80070D8F8000006
:1018600000F00700B04254D128683D4C810712D5E2
:10187000400703D5206840F4E05020602878000736
:1018800003D5206840F4604020602068A96820F0FB
:10189000F000084320602878C0072DD030496868E0
:1018A0000839012812D0022813D0032811D0096862
:1018B000890700292DDA216821F003010143216005
:1018C000FFF70CFE814641F2883A0EE00968890371
:1018D000EFE709688901ECE7FFF700FEA0EB0901DB
:1018E000514502D90320BDE8F0872068696800F0FF
:1018F0000C00B0EB810FEFD1D8F80010404601F09A
:101900000701B14207D90770006800F00700B04234
:1019100001D00120E7E72878400705D52068E9686D
:1019200020F4E050084320602878000706D520689E
:10193000296920F4604040EAC100206000F058F8B6
:101940002168084AC1F30311515CC8400649086088
:1019500006480068FFF720FE0020C4E7003C024074
:101960000838024080CC0208100000200800002047
:101970000F2202600C4A136803F0030343601368EC
:1019800003F0F0038360136803F4E053C36012684C
:101990004FF4E05303EAD20202610448006800F009
:1019A000070008607047000008380240003C024011
:1019B0000448054900680968044AC1F38221515C62
:1019C000C8407047100000200838024090CC020840
:1019D0000448054900680968044AC1F34231515C72
:1019E000C8407047100000200838024090CC020820
:1019F000154810B5006810F00C02144813D01449B3
:101A0000042A0FD0082A0ED10F4C241F2268236805
:101A100002F03F025B0207D52068C0F38810A0FBEC
:101A2000010106E0084610BD2168C1F38811A1FB41
:101A300000010023FEF72EFC2168C1F30141491C7F
:101A40004900B0FBF1F010BD083802400024F4005A
:101A500040787D012DE9F84F04006ED02078DFF842
:101A60004C93C007A9F104054AD009F104000168AC
:101A7000C1F38101012908D00068C0F38100022868
:101A80000AD1D9F80000400206D52868800337D56E
:101A900060680028E1D033E06068B0F5803F10D086
:101AA000B0F5A02F286810D020F480302860286876
:101AB00020F4802028606068A8B1FFF70FFD06467B
:101AC0000DE0286840F48030F4E740F4802028607E
:101AD000F7E700BFFFF702FD801B642873D8286872
:101AE0008003F7D50CE0FFF7F9FC064605E000BFE0
:101AF000FFF7F4FC801B6428F0D828688003F7D433
:101B00002078DFF8AC8280074FF0000A3ED5A74866
:101B1000001D016811F00C0F08D00068C0F38100AF
:101B200002280BD1D9F80000400207D428688007AA
:101B300016D5E068012800D112E033E1E068B8B1C1
:101B40000120C8F80000FFF7C9FC064605E000BF09
:101B5000FFF7C4FC801B0228C0D828688007F7D58F
:101B60002868216920F0F80040EAC10028600DE0F3
:101B7000C8F800A0FFF7B2FC064604E0FFF7AEFC91
:101B8000801B02281FD828688007F7D42078000718
:101B900022D5864F87486169703771B10121016094
:101BA000FFF79CFC064604E0FFF798FC801B022828
:101BB00009D838688007F7D50EE0C0F800A0FFF715
:101BC0008DFC064605E082E0FFF788FC801B0228BA
:101BD0007DD838688007F7D42078400768D5DFF8CB
:101BE000CCB100270BF13C0BDBF80000C0000BD49C
:101BF000DBF8001041F08051CBF80010DBF800005A
:101C0000012700F0805000906B4E3068C00510D462
:101C1000306840F480703060FFF760FC009005E0B1
:101C2000FFF75CFC0099401A022850D83068C005C4
:101C3000F6D55E4EA0686C3601280FD005283068B6
:101C400010D020F001003060306820F004003060D7
:101C5000A068B8B1FFF742FC00900FE0306840F098
:101C60000100F4E740F004003060F7E7FFF736FCCE
:101C70000099411A41F28830814266D83068800765
:101C8000F4D50EE0FFF72AFC009007E0FFF726FCF2
:101C90000099411A41F28830814256D83068800755
:101CA000F4D42FB1DBF8001021F08051CBF80010F4
:101CB000A069C8B33D49091D0968C1F38101022922
:101CC0004AD00228504607D0C8F8600000E03CE047
:101CD000FFF704FC04463BE04746C8F86000FFF706
:101CE000FDFB064605E000BFFFF7F8FB801B02285E
:101CF0002BD828688001F7D4D4E907010843A16AEA
:101D00002E4A490802EB0141626A41EA8211084306
:101D100094F82C1040EA0161C9F8001001203866DF
:101D2000FFF7DCFB044606E03EE000BFFFF7D6FB12
:101D3000001B022809D828688001F7D534E000BFCD
:101D4000FFF7CCFB001B022802D90320BDE8F88F67
:101D500028688001F4D427E00128F7D0D9F80000E2
:101D6000E26900F4800191421CD1226A00F03F0137
:101D7000914217D147F6C071626A0140B1EB821FF0
:101D800010D1A26A4FF0FF3300F4403103EB52024E
:101D9000B1EB024F06D194F82C1000F07060B0EB5C
:101DA000016F01D00120D1E70020CFE704380240C5
:101DB00000004742800E4742007000400000FFFFD5
:101DC0002DE9F84389463D494FF4FA4C4FF47A73B4
:101DD0000F68B7FBFCF159430091017F012965D0E1
:101DE00001250577022141770368CA2159620368FA
:101DF0005321596201688B684FF0FF045FEA435832
:101E00004FF000034FF003060CD500BFDDF8008053
:101E1000B8F10108CDF800804AD0D1F80C805FEA13
:101E20004878F3D4D1F8088028F48068C1F8088095
:101E30000168D1F80C8008F0800868F49068C1F857
:101E40000C80B7FBFCF14FF47A777943009101687D
:101E5000009F7F1E00972BD0CF687F07F8D58E6834
:101E600026F007068E6001688E6816438E60026851
:101E7000C2F8149012490A6842F480020A601049BC
:101E800008310A6842F480020A6001688A6842F4F4
:101E900080428A6001688A6842F480628A600168D0
:101EA0004C62457703770020BDE8F8830220FBE70A
:101EB0004C62467703770320F6E70000100000200D
:101EC000003C01407047000010B50A4904464FF439
:101ED000800008602068C168490508D5C16801F024
:101EE000800161F49061C1602046FFF7EBFF0120A3
:101EF000607710BD143C014010B5040002D0607F33
:101F000010B106E0012010BD00202077204600F02F
:101F100041F8022060772068C168C943C90632D5FC
:101F2000CA214162216853204862204602F0A6F887
:101F300020BB20688168164A11408160216888684A
:101F400062681043D4E904231A431043886021686F
:101F5000E068086120680169228941EA0241016163
:101F6000204602F0AFF848B921680A6C22F48022BA
:101F70000A6421680A6CA3691A430A642268FF2173
:101F8000516208B110BD00200121617710BD000031
:101F9000BFFF8FFF10B586B0044618216846FEF7D4
:101FA000D1F90D492068884214D102200090C00167
:101FB00004906846FFF798FB08B1FEF7BBFE07499F
:101FC00001200860002205210320FFF75BFB0320AE
:101FD000FFF74AFB06B010BD002800403C0E474208
:101FE00070B50446007F0B46012819D001262677DC
:101FF00002206077B2B19878D97840EA01455878E4
:102000001978000240EA413005432168CA2048623D
:10201000216853204862204602F030F8D0B122E017
:10202000022070BD5878C10603D500F0EF000A30D9
:102030005870D87802F016F80204587802F012F8B6
:1020400042EA0022987802F00DF80243187842EA3A
:102050004035DAE70748054020684560204602F031
:1020600031F800B966772268FF215162002121779B
:1020700070BD00003FFFFF002DE9F0410446007FE6
:102080000D46012823D04FF0010884F81C8002205F
:1020900060772068002780684FEA4060D2B100284E
:1020A00000DBEF70A878297840EA01466878E97883
:1020B000000240EA815006432168CA204862216834
:1020C00053204862204601F0D9FFB8B12CE002202D
:1020D000BDE8F081002800DBEF70287801F0C2FF36
:1020E0000204687801F0BEFF42EA0022A87801F0FD
:1020F000B9FF0243E87842EA8056DDE70D48064022
:10210000206806602068816821F480218160D5E91B
:102110000301084321688A6810438860204601F063
:10212000D1FF08B984F81D802268FF21516227770A
:10213000CEE700007F7F7F0070B504460B48216822
:10214000C860FFF7CBF905464FF47A7607E000BF89
:10215000FFF7C4F9401BB04201D9032070BD2068CD
:10216000C0688006F4D5002070BD00005F3F01000C
:1021700070B5040009D0606A002540B12561656131
:10218000A56294F8510040B10CE0012070BD606878
:10219000B0F5827FF4D0E561F2E784F85050204634
:1021A00000F044F8022084F851002068016821F012
:1021B00040010160A088218900F4827001F404418B
:1021C0000843A18901F400610843217C01F0020168
:1021D0000843217D01F001010843218B01F40071C6
:1021E0000843217F01F03801084394F8201001F0E2
:1021F00080010843218D01F40051084321680860E3
:10220000A069042101EA104094F8241001F01001A3
:102210000843216848602068C16921F40061C161F8
:102220006565012084F85100002070BD70B586B04E
:10223000044614216846FEF785F8234E22680021E3
:102240002248022303240525B2421AD11F4A143220
:10225000166846F480561660126802F480520592A1
:10226000026842F001020260006802AA00F0010068
:10227000059082E83200E020CDE900036946144869
:102280001DE0144EB2421CD1104A1032166846F4BA
:1022900080461660126802F480420592026842F09D
:1022A00002020260006802AA00F00200059082E8C3
:1022B00032004FF46040CDE9000369460648FFF75D
:1022C00017F806B070BD0000003001403038024001
:1022D0000000024000380040000402402DE9F84FA1
:1022E000984616468A460446FFF7F8F8814694F861
:1022F000510001281ED1BAF1000F73D0002E71D009
:1023000094F85000012815D0012784F8507003205C
:1023100084F8510000256565C4F830A0A686E686DD
:10232000A563A587E58765642564A068B0F5004FBF
:1023300003D00CE00220BDE8F88F2068016821F08E
:10234000400101602068016841F48041016020681B
:102350000168490603D4016841F040010160E0686A
:10236000B0F5006F606803D048B3012E27D047E076
:1023700008B1012E1FD1206B21680088C86006E0DB
:1023800020688168890709D5216B0988C160206BA5
:10239000801C2063E08E401EE0860CE0FFF79EF874
:1023A000A0EB0901414503D3B8F1FF3F03D035E06D
:1023B000B8F1000F32D0E08E0028E1D123E0206B8D
:1023C00021680078087306E02068816889070AD5CB
:1023D000216B09780173206B401C2063E08E401E46
:1023E000E0860DE02BE0FFF779F8A0EB090141450D
:1023F00003D3B8F1FF3F03D010E0B8F1000F0DD0C8
:10240000E08E0028E0D14A464146204601F098FE81
:1024100008B120206065A06830B109E084F85170EF
:1024200084F85050032086E72068C16880680090D7
:1024300084F8517004F8505F60680028F3D00120E0
:1024400079E72DE9FF4F81B01D46934604464FF0D2
:1024500001090E9EFFF742F8074694F851006168A3
:10246000012806D0B1F5827F3CD1A168C9BB042800
:1024700038D10298002871D0BBF1000FFBD0002D9D
:10248000F9D094F8500001282CD04FF0010A84F8BC
:1024900050A094F85100042802D0052084F851007F
:1024A0004FF00008C4F85480C4F838B0E587A58719
:1024B00002992163E586A586C4F84080C4F844806B
:1024C00020680168490603D4016841F040010160B9
:1024D000E068B0F5006F606808D0F0B3012D49D016
:1024E00081E0FFE7022005B0BDE8F08F08B1012DC3
:1024F00039D1206B21680088C860206B801C206364
:10250000E08E401EE0862EE02068816889070FD5A6
:10251000E18E69B1B9F1010F0AD1216B0988C1605F
:10252000206B801C2063E08E401EE0864FF0000987
:1025300020688168C9070CD0E18F51B1C068A16BD8
:102540000880A06B801CA063E08F401EE0874FF0E6
:102550000109FEF7C3FFC01B01E00BE067E0B042DA
:1025600001D3701C50D1E08E0028CDD1E08F00281F
:10257000CAD13EE0206B216800780873206B401CB4
:102580002063E08E401EE0862DE020688168890788
:102590000FD5E18E69B1B9F1010F0AD1216B09782C
:1025A0000173206B401C2063E08E401EE0864FF0DC
:1025B000000920688168C9070CD0E18F51B1C0685B
:1025C000A16B0870A06B401CA063E08F401EE087E9
:1025D0004FF00109FEF782FFC01BB04202D3701C0E
:1025E00001D011E086B1E08E0028CED1E08F002826
:1025F000CBD13A463146204601F0A2FD50B1202011
:10260000606584F8508012E084F851A084F850800E
:10261000032068E7A06818B92068C1688068009046
:1026200084F851A084F85080606D0028F1D001201A
:1026300059E770477047000070B590F83C20012AB8
:102640002CD0012480F83C40022280F83D20036811
:102650005A689D6822F070060A6832435A60104B2F
:1026600002689A420ED0B2F1804F0BD00D4B9A42C5
:1026700008D00D4B9A4205D00C4B9A4202D00C4B1D
:102680009A4204D1496825F080031943916080F88B
:102690003D40002180F83C10084670BD022070BD0E
:1026A000000001400004004000080040000C004011
:1026B0000040014010B5040003D094F83D0010B173
:1026C00007E0012010BD002084F83C00204600F007
:1026D0001FF8022084F83D00211D206802F060F8F8
:1026E000012084F8460084F83E0084F83F0084F816
:1026F000400084F8410084F8420084F8430084F8E4
:10270000440084F8450084F83D00002010BD00001E
:1027100008B500680B49884212D10B48016841F0A6
:10272000020101600068002200F002000090052113
:102730001D20FEF7A7FFBDE808401D20FEF794BF4F
:1027400008BD0000000400404038024090F83D10F1
:10275000012901D001207047022180F83D10016855
:10276000CA6842F00102CA6000680E4988420ED071
:10277000B0F1804F0BD00C49884208D00B498842F9
:1027800005D00B49884202D00A49884204D18168A9
:1027900001F00701062903D0016841F00101016041
:1027A0000020704700000140000400400008004085
:1027B000000C00400040014070B5044690F83C0019
:1027C0000025012817D0012684F83C60022084F8F7
:1027D0003D002068826822F0770222F47F42826006
:1027E0000868502838D00DDC20284FD005DC90B385
:1027F000102811D14AE0022070BD302846D0402870
:102800000AD13BE060282FD070280DD0B0F5805F52
:1028100003D0B0F5005F12D0012584F83D600020A0
:1028200084F83C00284670BDCB68D1E901212068BE
:1028300002F006F82068816841F0770109E0CB6872
:10284000D1E90121206801F0FBFF2068816841F493
:1028500080418160E1E719E0CA684968206802F0B8
:1028600001F85021206806E0CA684968206802F033
:102870000AF86021206801F0EDFFCEE7CA684968D8
:10288000206801F0EFFF40212068F4E7226801464C
:102890001046F0E770472DE9F04104460068C6682D
:1028A00005694FF00007A90713D5B10711D5F91E27
:1028B000016101202077206880698007204602D0CE
:1028C000FFF7E8FF04E000F07EF8204600F07CF817
:1028D0002777680716D5700714D521686FF00400B4
:1028E0000861022020772068806910F4407F20462C
:1028F00002D0FFF7CFFF04E000F065F8204600F0BB
:1029000063F82777280715D5300713D521686FF0AE
:1029100008000861042020772068C06980072046ED
:1029200002D0FFF7B7FF04E000F04DF8204600F0BA
:102930004BF82777E80616D5F00614D521686FF016
:1029400010000861082020772068C06910F4407FDB
:10295000204602D0FFF79EFF04E000F034F8204646
:1029600000F032F82777E80708D0F00706D0216892
:102970006FF001000861204600F028F8280608D50D
:10298000300606D521686FF0800008612046FFF709
:1029900050FE680608D5700606D521686FF0400025
:1029A0000861204600F028F8A8060AD5B00608D528
:1029B00021686FF0200008612046BDE8F041FFF774
:1029C00039BEBDE8F08170477047000010B504467D
:1029D0000748844202D1012022F03EF905492068CF
:1029E000884203D1BDE81040FEF7B4BD10BD000021
:1029F0002C05002000080040704738B5044690F8C8
:102A00004200202801D0022038BD51B14AB1012036
:102A1000206300206063204602F09EF9216B0129AB
:102A200001D0012038BD21680A68496800912168F9
:102A30000C3151E8002F42F0100241E80023002B36
:102A4000F5D138BD0A4A10B590420FD1C9B2094834
:102A5000FEF76AF84FF4807206490548FFF7CDFF8C
:102A600005480068016821F00801016010BD000000
:102A70007405002050030020040600207047000069
:102A8000F8B5016804460868CA684B6910F00F0F72
:102A90004FF0000559D003F0010602F49077374358
:102AA00065D0C10705D0D10503D5616C41F00101A6
:102AB0006164410705D5D90703D0616C41F002017B
:102AC0006164810705D5D90703D0616C41F0040129
:102AD0006164010707D502F02001314303D0616C26
:102AE00041F008016164616C00293AD0800604D588
:102AF000900602D5204602F048F820684069616CD3
:102B0000C0F38010090700D460B3204602F008F833
:102B100020684069400621D52068143050E8001F25
:102B200021F0400140E80012002AF5D1E06BA8B185
:102B300072490165E06BFEF744FA002811D0E06BA2
:102B4000016D01B0BDE8F040084783060FD593063C
:102B50000DD52046BDE8F84002F017B82046FFF733
:102B60008DFFF8BD2046FFF789FF6564F8BD266B31
:102B70002023012E7ED1C6067CD5D6067AD50868DC
:102B80004868009048694FF0020640064DD5E26B58
:102B9000106840684FF480770004000C3AD0A18D93
:102BA000814237D9E085D069B8422DD020680C30F9
:102BB00050E8001F21F4807140E80012002AF5D18E
:102BC0002068143050E8001F21F0010140E8001295
:102BD000002AF5D12068143050E8001F21F0400190
:102BE00040E80012002AF5D184F8423025632068BD
:102BF0000C3050E8001F21F0100140E80012002ABC
:102C0000F5D1E06BFEF794F96663A08DE18D401A73
:102C100081B206E0A18D8142A8D1D069B842A5D188
:102C200066632046FFF70EFFF8BDA08DE18D401AC8
:102C300081B2E08D0028F7D00029F5D020680C3053
:102C400050E8002F22F4907240E80027002FF5D1C1
:102C50002068143050E8002F22F0010240E80027DD
:102C6000002FF5D184F84230256320680C3050E8FD
:102C7000002F00E006E022F0100240E80023002BC5
:102C8000F3D1CDE705062BD5150629D594F84100DB
:102C90002128C9D1A068B0F5805F01D12069B0B109
:102CA000206A411C2162216800784860E08C401E47
:102CB0000004000CE084B7D12068C16821F08001D5
:102CC000C1602068C16841F04001C160F8BD206A60
:102CD0000088C0F308004860206A801C2062E5E795
:102CE0004006F3D55006F1D5CA68204622F04002CE
:102CF000CA6084F8413000F033F9F8BD254A000875
:102D000070B5040004D094F84100002510B106E02D
:102D1000012070BD84F84050204600F023F82420A4
:102D200084F841002068C16821F40051C160204648
:102D300001F08CFF2068016921F490410161206855
:102D4000416921F02A0141612068C16841F40051C4
:102D5000C1606564202084F8410084F84200656306
:102D6000002070BD2DE9F04786B005461421684665
:102D7000FDF7E8FADFF82CC129684B480226032743
:102D800007234A4A0024614562D147491431D1F8EA
:102D900000C04CF0100CC1F800C0096801F010012F
:102DA0000591016841F00101016000680DF1080919
:102DB00000F0010005905015CDE90006012098466D
:102DC00089E88101694692461046FEF791FA50461D
:102DD0000DF1080A4FF480698AE89001CDE9009668
:102DE0006946FEF785FA334E31484FF00067306090
:102DF000C6E90174C6E903497461B461F4613462DF
:102E000030467462FEF7C0F908B1FDF793FFEE6338
:102E1000B563284E264860367830E6E80207402041
:102E2000A6E81102234846F814496030B461F46101
:102E300034627462FEF7A8F908B1FDF77BFFAE6358
:102E4000002205212520B563FEF71CFC252024E087
:102E5000194DA94223D1144910310D6845F40035AC
:102E60000D60096801F400310591016841F001012C
:102E700001600068029400F0010005900C20CDE98B
:102E80000006CDE9037369461046FEF731FA0022C9
:102E900005212620FEF7F6FB2620FEF7E5FB06B00F
:102EA000BDE8F087001001403038024000000240C9
:102EB0004064024004060020004400407047704710
:102EC0002DE9F843044690F84100984616460D4611
:102ED000202802D00220BDE8F88385B17EB1002011
:102EE0006064212084F84100FEF7F8FAA684814648
:102EF000E684A0682027B0F5805F02D003E00120BF
:102F0000E9E7206910B12E4600250EE000260CE00E
:102F10008021204601F070FFA8B9C6B116F8010B58
:102F200021684860E08C401EE084E08C4B464FF006
:102F30000002CDF800800028EAD14FF04001204681
:102F400001F05AFF40B184F841700320C3E735F81F
:102F5000020BC0F30800E3E784F841700020BAE7F1
:102F60007047FEE770B5974D4FF40064002221468C
:102F70002846FEF7ADFA6420FEF7A8F901222146A3
:102F80002846FEF7A5FA6420FEF7A0F9CF2000F04E
:102F900069F9002000F04CF9C12000F049F9302017
:102FA00000F046F9ED2000F05DF9642000F040F9F2
:102FB000032000F03DF9122000F03AF9812000F0E2
:102FC00037F9E82000F04EF9852000F031F90020B3
:102FD00000F02EF97A2000F02BF9CB2000F042F916
:102FE000392000F025F92C2000F022F9002000F013
:102FF0001FF9342000F01CF9022000F019F9F72025
:1030000000F030F9202000F013F9EA2000F02AF94E
:10301000002000F00DF9002000F00AF9C02000F0B7
:1030200021F9102000F004F9C12000F01BF9102054
:1030300000F0FEF8C52000F015F9452000F0F8F882
:10304000152000F0F5F8C72000F00CF9902000F0F2
:10305000EFF8362000F006F9682000F0E9F82A20A1
:1030600000F000F9002000F0E3F8002000F0E0F8A4
:10307000012000F0DDF83F2000F0DAF82B2000F00E
:10308000F1F8002000F0D4F8002000F0D1F8002082
:1030900000F0CEF8EF2000F0CBF83A2000F0E2F894
:1030A000552000F0C5F8B12000F0DCF8002000F059
:1030B000BFF81A2000F0BCF8B62000F0D3F80A20C0
:1030C00000F0B6F8A22000F0B3F8F22000F0CAF841
:1030D000002000F0ADF8262000F0C4F8012000F038
:1030E000A7F8E02000F0BEF80F2000F0A1F829209A
:1030F00000F09EF8242000F09BF80C2000F098F8D7
:103100000E2000F095F8092000F092F84E2000F013
:103110008FF8782000F08CF83C2000F089F8092026
:1031200000F086F8142000F083F8052000F080F805
:10313000172000F07DF8112000F07AF8002000F050
:1031400077F8E12000F08EF8002000F071F81620EA
:1031500000F06EF81B2000F06BF8042000F068F817
:10316000112000F065F8072000F062F8312000F02F
:103170005FF8332000F05CF8422000F059F8052099
:1031800000F056F80F2000F053F80B2000F050F834
:10319000282000F04DF82F2000F04AF80F2000F012
:1031A00047F8112000F05EF87820FEF78FF829200C
:1031B00000F058F82846BDE8704001221102FEF7E1
:1031C00087B900000000024001B56423012269466E
:1031D0000148FFF783F808BD7C0400202DE9F04189
:1031E00007461C4615460E462A2000F03BF8380AD2
:1031F00000F01EF8F8B200F01BF8280A00F018F8EA
:10320000E8B200F015F82B2000F02CF8300A00F09E
:103210000FF8F0B200F00CF8200A00F009F8E0B264
:1032200000F006F8BDE8F0412C2000F01BB80000CB
:1032300070B50B4C0546002240212046FEF748F9A8
:10324000012280212046FEF743F92846FFF7BCFF04
:103250002046BDE8704001224021FEF739B9000048
:103260000004024070B50B4C054600224021204668
:10327000FEF72EF9002280212046FEF729F9284684
:10328000FFF7A2FF2046BDE8704001224021FEF773
:103290001FB900000004024070B5DDE90456FFF7D5
:1032A0009DFF0E4C002240212046FEF711F901221D
:1032B00080212046FEF70CF94FF6FF7000EA460227
:1032C0004FF0FF3329460648FFF708F82046BDE8CF
:1032D000704001224021FEF7FBB8000000040240CC
:1032E0007C04002010B50C000BD00A460146482390
:1032F0000020FDF705FEB4F84600A0F5AA41AA3962
:1033000001D0012010BD002010BD000030B593B0E9
:103310000D46044648216846FDF714F8FEF7DEF82E
:10332000009045F2AA50ADF846008DF804402846BA
:10333000FDF725F882B23F2A00D93F2229460DF138
:103340000500FCF7D8FF094C60684830B0F5800FE5
:1033500001D30020606048236A4600206168FDF7C1
:10336000DBFD60684830606013B030BDB4020020FF
:10337000ADF5047D41F2883028F0E0FBDFF8F090F5
:10338000DFF8F0A04FF0FF384646424680A94C4691
:10339000D9F80C0029F04AF86078002844D00025BC
:1033A0003146206929F0DEF84FF40047DFF8C8B055
:1033B000564621E083A96846FDF720FD10B122F0B2
:1033C000F9FC1EE0002210213046FEF781F80122B0
:1033D00039465846FEF77CF8684600F063F9FDF779
:1033E000E9FC6D1C042D03DD24A10020FFF78EFFF6
:1033F0004FF4487028F0A2FBFDF79EFC08B1052DA4
:10340000D8DB00F09FF9012210213046FEF760F86A
:10341000002208213046FEF75BF800231A461946C1
:10342000206928F0F3FEAFE78298FDF7A4F906467D
:103430000F468198FDF79FF904460D468098FDF7E9
:103440009AF941EC100B8DE8F00053EC102B0FA112
:1034500004A801F0A3FD012208215046FEF738F828
:1034600004A8FCF78CFF81B204A8FDF709FD8BE7E7
:10347000140000200004024000000240425543486E
:1034800055414E2046696E69736800007B22746561
:103490006D7065726174757265223A252E31662CE5
:1034A000227368696475223A252E31662C226C6974
:1034B000676874223A252E30667D000070B590B0A2
:1034C000642303223AA13C48FFF7FAFC4FF47A70D8
:1034D00028F034FB4FF4FA65294638A0FDF724FCA8
:1034E000C82028F02BFB294636A0FDF71DFC41F231
:1034F0008834224637A13AA0FDF7BEFBAE10304615
:1035000028F01CFB2A463EA13FA0FDF7B5FB304644
:1035100028F014FB294646A0FDF706FC224648A1E8
:1035200048A0FDF7A9FB304628F008FB00F0E6FDB7
:10353000302248A16846FCF7DEFE23463022694669
:103540001D48FFF7BDFC4FF49675284628F0F6FAA3
:1035500040F6B83304220FA9002023F04DFB494E5A
:1035600004280AD19DF83C00202806D19DF83D0092
:10357000022802D19DF83F0018B10020307010B031
:1035800070BD41A20DF1300C07CA8CE8070023463C
:103590000C220CA90848FFF793FC284628F0CEFA25
:1035A000012030703BA10020FFF7B0FEE7E70000EC
:1035B0002B2B2B0D0A0000007405002041540D0A2E
:1035C0000000000041542B43574D4F44453D310D01
:1035D0000A0000005749464920474F5420495000EF
:1035E00041542B43574A41503D22616161222C22B4
:1035F0003138323038393031373139220D0A000054
:10360000434F4E4E4543540041542B43495053546D
:103610004152543D22544350222C2262656D666112
:103620002E636F6D222C393530310D0A00000000F9
:1036300041542B4349504D4F44453D310D0A000044
:103640003E00000041542B43495053454E440D0A5F
:1036500000000000102E00064D51497364700302F3
:1036600000780020343166333837363732306164C1
:10367000346165383630646230366533353633311F
:103680006138353515000020820A00010005737489
:103690006D333201434F4E4E4543542046494E4907
:1036A000534800002DE9F043C1B032278146E84677
:1036B0008DF8007001240526FCF761FE85B205F146
:1036C000090081B24FEA080001F07F02C909002910
:1036D00002D000BF42F08002025504F10104F3D190
:1036E0004FF00001015504F1010413A3065504F144
:1036F000010400EB04021B681360177104F1050458
:103700002A46015504F101044FF00101015504F16D
:10371000010420444946FCF7EEFD601982B241F2F3
:10372000883369460648FFF7CBFB4FF4FA7028F060
:1037300005FA41B0BDE8F08373746D3332000000C8
:10374000740500202DE9F047ADF5087D4FF4807138
:1037500042A8FCF7F7FD4FA142A801F01FFC044668
:1037600000260DF5847ADFF8309139E04A48001DD3
:1037700000EB06152878012802D002281DD02DE084
:10378000E868FCF7F8FF07468846A868FCF7F3FFEF
:1037900041EC100BCDE900780AEB040053EC102B40
:1037A0003EA101F0FBFB95ED020A04448DED830A76
:1037B00095ED030A8DED840A10E0A868FCF7DBFFA5
:1037C00041EC100B0AEB040053EC102B3AA101F072
:1037D000E5FB95ED020A04448DED850A761CF6B2F0
:1037E00099F800008642C1D3012C04DD0AEB0400E5
:1037F0007D2100F8011C34480223002283A90068BF
:1038000028F004FD32270DF108088DF80870012416
:10381000052642A8FCF7B3FD85B205F1090081B287
:103820004FEA080001F07F02C909002902D000BF59
:1038300042F08002025504F10104F3D14FF000017F
:10384000015504F1010421A3065504F1010400EB24
:1038500004021B681360177104F105042A46015520
:1038600004F101044FF00101015504F10104204469
:1038700042A9FCF740FD601982B241F2883302A9E7
:103880001448FFF71DFB0A2028F058F90DF5087DB4
:10389000BDE8F0877B000000840200207B22746575
:1038A0006D70223A252E31662C2268756D69223A98
:1038B000252E31662C000000226C69676874223A5C
:1038C000252E30667D2C00002800002073746D3397
:1038D000320000007405002008B505A04FF4FA631B
:1038E00000680090022269460248FFF7E9FA08BD25
:1038F000C0000000740500200D4808B5016841F4BF
:10390000800101600068002200F480000090052121
:103910003A20FDF7B7FE3A20FDF7A6FE002205216A
:103920004620FDF7AFFEBDE808404620FDF79CBEEF
:103930003038024010B5044A0021044822F022FC2D
:103940000349086010BD000054CC0208E945000896
:1039500000000020F0B587B014216846FCF7F2FCA7
:1039600028480024016841F004010160016801F069
:1039700004010591016841F080010160016801F0D6
:1039800080010591016841F001010160016801F0C9
:1039900001010591016841F00201016000681A4EC1
:1039A00000F002000590002203213046FDF790FD53
:1039B000012241F2D8413046FDF78AFD134F012222
:1039C00011023846FDF784FD00224FF408413846C5
:1039D000FDF77EFD41F2DB4000900125CDE9015469
:1039E000694630460394FDF783FC4FF4094000908C
:1039F000CDE90154694638460394FDF779FC07B0D8
:103A0000F0BD0000303802400004024000000240D7
:103A1000094810B5074901600621416040F6C3110D
:103A20008160FDF761FD002803D0BDE81040FDF77F
:103A300081B910BD003000405004002010B586B0A0
:103A400014216846FCF77EFC1F4800241D4905949C
:103A5000C0E900147F218160FF21C0E903144461A3
:103A60008461FEF749FA08B1FDF764F98DF800406A
:103A70008DF801408DF802400394012269461248F6
:103A80000494FEF7F9FA08B1FDF754F901208DF816
:103A900014008DF815008DF8160002468DF81740B9
:103AA00005A90948FEF79CFA08B1FDF743F9002281
:103AB00011460548FEF784F9002801D0FDF73AF9D0
:103AC00006B010BD002800405C040020104810B56E
:103AD0000E4901604FF48271416000218160C16034
:103AE0004FF400720161C0E905122822C0E90721E4
:103AF000416281620A21C162FEF73AFB002803D0CD
:103B0000BDE81040FDF716B910BD000000300140BF
:103B10007C040020104810B50E4901604FF48271FA
:103B2000416000218160C1604FF400720161C0E911
:103B300005122822C0E90721416281620A21C1627F
:103B4000FEF716FB002803D0BDE81040FDF7F2B8E1
:103B500010BD000000380040D404002010B586B02D
:103B60000024174800940194029403940494134988
:103B7000059401606321C0E9011440F2E731C0E916
:103B800003148461FEF796FD08B1FDF7D3F84FF4F6
:103B90008050009069460A48FEF70EFE08B1FDF716
:103BA000C9F8049404A906480594FEF745FD0028C9
:103BB00001D0FDF7BFF806B010BD000000040040C2
:103BC0002C0500200C4810B50A4901604FF4E13182
:103BD0004160002181600C22C160C0E90412816152
:103BE000C161FFF78DF8002803D0BDE81040FDF754
:103BF000A1B810BD00100140740500200C4810B59C
:103C00000A4901604FF416514160002181600C2285
:103C1000C160C0E904128161C161FFF771F8002839
:103C200003D0BDE81040FDF785B810BD004400404A
:103C3000BC050020FEE74FF4487400F007F800F0E0
:103C4000FBF8204627F07AFFF7E7000070B586B052
:103C50000025264E45E02548001D00EB05140020F8
:103C6000019002900390049001A80090A3886288BC
:103C70006178207800F03EF801282DD120780128C5
:103C800002D0022828D116E0BDF8040000EE100A88
:103C9000F8EE400AB2EE040A80EE801A84ED021AB1
:103CA000BDF8060000EE900AF8EE600A80EE801A79
:103CB00084ED031A10E001984FF47A714FEA304016
:103CC000B0FBF1F000EE100AB8EE400A84ED020AF3
:103CD0009FED070A84ED030A1E2027F02FFF6D1CBD
:103CE000EDB230788542B6D306B070BD84020020B4
:103CF000000000002DE9F04F8FB080468DF82800BD
:103D00008DF82910100A8DF82A00180A8DF82C0059
:103D10000E4600248DF82B201D468DF82D302246AE
:103D200006210AA8FCF7C0FE8DF82E00000A8DF8C7
:103D30002F00202102A8FCF705FBDFF8F4906FF0BC
:103D40002801D9F8000001603A4F01221146384697
:103D5000FDF7BEFB4FF47A7308220AA94846FFF725
:103D6000AFF8012027F0EAFE002201213846FDF7D6
:103D7000AFFBFDF7B3FB0190FDF7B0FB07464FF437
:103D8000487B0DF1080A00BFD9F8000001688906D8
:103D90000AD54068202CC0B203D20AF80400641C83
:103DA000E4B2FDF79BFB074624B1FDF797FBC01B70
:103DB000322809D8FDF792FB0199401A584503D8DB
:103DC000012027F0BBFEDFE7A01EC1B29DF80A70FC
:103DD000012202A8FCF768FE7F1DBC4226D19DF897
:103DE0000820424522D19DF80910B1421ED10AEBAC
:103DF0000402C4B212F8023C5146A34216D112F892
:103E0000012CB2EB102F11D1002009E001EB400290
:103E1000189BB2F8032052BA23F81020401CC0B2FD
:103E2000A842F3D301200FB0BDE8F08F0020FAE7DD
:103E3000BC050020000402400EB50A4802230022FF
:103E400090ED020A69468DED000A90ED030A8DEDB2
:103E5000010A90ED060A04488DED020A006828F078
:103E6000D5F90EBD8802002020000020FEE70000EA
:103E700070B590B0642303223AA13C48FFF720F8C4
:103E80004FF47A76304627F059FE00247500294613
:103E900037A0FCF749FF304627F050FE641C022C87
:103EA000F5DB2C46294635A0FCF73EFF41F288356C
:103EB0002A4636A138A0FCF7DFFE2A463EA140A0E4
:103EC000FCF7DAFE214648A0FCF72EFF2A464AA15D
:103ED0004AA0FCF7D1FE4FF4FA7027F02FFE00F055
:103EE0000DF9302249A16846FCF705FA2B4630222D
:103EF00069461E48FEF7E4FF4FF49676304627F0F9
:103F00001DFE40F6B83304220FA9002022F074FEF3
:103F1000012825DA00F0F2F800242B463022694609
:103F20001248FEF7CDFFC82027F008FE641C1E2CA7
:103F3000F3DB42A20CAC07CA84E807002B460C2234
:103F40000CA90A48FEF7BCFF304627F0F7FD3E49B2
:103F5000012008703D4908703DA10020FFF7D6F907
:103F600010B070BD2B2B2B0D0A0000007405002033
:103F700041542B5253540D0A0000000041542B436E
:103F8000574D4F44453D310D0A0000005749464901
:103F900020474F542049500041542B43574A415029
:103FA0003D22616161222C22313832303839303182
:103FB000373139220D0A0000434F4E4E454354001D
:103FC00041542B43495053544152543D2254435081
:103FD000222C2262656D66612E636F6D222C39354D
:103FE00030310D0A0000000041542B4349504D4F21
:103FF00044453D310D0A00003E00000041542B4372
:10400000495053454E440D0A00000000102E000692
:104010004D514973647003020078002034316633D7
:10402000383736373230616434616538363064622F
:10403000303665333536333161383535820A000123
:10404000000573746D333201150000201600002046
:104050007265636F6E6E65637420737563636573F9
:1040600073000000002102E00A38C0B2491C0A288F
:10407000FAD2090740EA1160704700002DE9F041CB
:10408000044600680025C168490618D4C16841F09B
:104090008001C160FDF722FA06464FF47A780427C2
:1040A00007E000BFFDF71AFA801B404501D967778A
:1040B00001252068C068400601D4002DF2D02846B2
:1040C000BDE8F08170B5044600680025C16821F0A4
:1040D0008001C16020688068800606D42046FEF713
:1040E0002BF810B1042060770125284670BD000030
:1040F0000148FDF7E9BE00005C04002002480021F1
:104100000170417070470000A80200200A490A7837
:104110004B789A4201D100207047084B9A5C02709C
:1041200008784FF49672401CB0FBF2F302FB1300C8
:104130000870012070470000A8020020E01501204F
:10414000F8B515460E460B460092044601220221A0
:1041500000F0ECF9A0B9134813490068B0FBF1F086
:104160004FF47A71484300906068B0F5827F0DD1BA
:104170003346002280212046009500F0D7F970B127
:10418000606D40F0200060650320F8BD009830B1FC
:10419000401E009020688068C0430006F6D50020CD
:1041A000F8BD00001000002000366E012DE9F0413E
:1041B000DFF8508014460D4606464FF48057002223
:1041C00039464046FDF784F9032000F025F9C5F390
:1041D000074000F021F9C5F3072000F01DF9E8B20F
:1041E00000F01AF904E0FF2000F016F906F8010BC0
:1041F000641EA4B2F7D239464046BDE8F041012220
:10420000FDF766B9000402402DE9F04707460E4667
:1042100011F0FF00C0F10001CDB24FEA122402F00C
:10422000FF094FF4807A13D0F0B24042C0B206EBDF
:1042300000080CB3501B80B2040A00F0FF092A46A4
:104240003146384600F06EF83D44464657462AE06F
:104250006CB15546641EE4B20CD32A46314638464A
:1042600000F060F806F5807607F58077F2E73146D2
:10427000384621E04A46FAE7A945F8D9A9EB0500F6
:10428000C4B22A463146384600F04CF84146781907
:10429000224611E03A463146284600F043F805F53B
:1042A000807506F58076641EE4B2F3D2B9F10000A1
:1042B00006D0024631462846BDE8F04700F032B845
:1042C000BDE8F08730B5144887B00024016841F09C
:1042D000020101600068142100F0020005906846A8
:1042E000FCF730F84FF4805501200095CDE901042A
:1042F00003940A4C69462046FCF7FAFF012229463E
:104300002046FDF7E5F806480068016841F04001E5
:10431000016007B030BD00003038024000040240A8
:10432000D40400202DE9F04114460D46064600F065
:10433000C5F8DFF85C804FF48057002239464046CC
:10434000FDF7C6F8022000F067F8C5F3074000F05B
:1043500063F8C5F3072000F05FF8E8B200F05CF8FE
:10436000B4F5807F07D90BA000F0EEFDFF24307874
:1043700000F052F8761C641EA4B2F8D2012239462D
:104380004046FDF7A5F8BDE8F04100F06FB8000029
:10439000000402403C3C2D464C4153482D455252AE
:1043A0004F522D3E3E205350495F464C4153485F8B
:1043B00050616765577269746520746F6F206C6116
:1043C000726765210A00000070B5044600F076F8B7
:1043D00000F04CF80F4E4FF480550022294630462D
:1043E000FDF776F8202000F017F8C4F3074000F03E
:1043F00013F8C4F3072000F00FF8E0B200F00CF857
:10440000012229463046FDF763F8BDE8704000F010
:104410002DB800000004024070B512494FF48055D9
:104420000D60114B1C6805E00A68561E0E6001D233
:1044300000200CE0A268D2439207F5D4E0600D6042
:104440001A6808E00868431E0B6004D2012000F0DF
:104450004BF8C0B270BD9068C043C007F2D1D068BD
:10446000F7E70000AC020020D404002070B5114E24
:104470004FF48055002229463046FDF729F80520E3
:10448000FFF7CAFF0C4C2560FF20FFF7C5FF22682D
:10449000511E216004D2BDE87040042000F024B811
:1044A000C007F1D129463046BDE870400122FDF732
:1044B0000FB8000000040240AC02002070B5094DA6
:1044C0004FF48054002221462846FDF701F80620CB
:1044D000FFF7A2FF21462846BDE870400122FCF705
:1044E000F7BF00000004024010B5014602A000F032
:1044F0002BFD002010BD00003C3C2D464C41534894
:104500002D4552524F522D3E3E2053504920E7AD8B
:1045100089E5BE85E8B685E697B6216572726F7249
:10452000436F6465203D2025640A00002DE9F843AF
:104530001E46914688460446089DFCF7CFFF401B67
:10454000351AFCF7CBFF074626480068C0F3CB308E
:1045500068430AE0701C09D0FCF7C0FFC01BA842EA
:104560000FD275B10098B8B3401E009020688168E2
:1045700038EA010033D000214945EBD10020BDE8E5
:10458000F8832068416821F0E00141606068B0F57F
:10459000827F0BD1A068B0F5004F02D0B0F5806FDC
:1045A00004D12068016821F040010160A06AB0F5E3
:1045B000005F09D12068016821F400510160206882
:1045C000016841F400510160012084F8510000208D
:1045D00084F850000320D2E7FFE70025C6E7012159
:1045E000CAE70000100000201CB500242020CDE9FF
:1045F0000004420123461DA11E4828F0A9F81920F5
:10460000CDE900044FF40076002332461AA11D487C
:1046100028F09EF81825CDE90054002332461AA14F
:104620001C4828F095F8CDE90054002332461AA121
:104630001C4828F08DF82220CDE9000400233246E2
:1046400019A11C4828F084F828F0E8F81A490860F5
:1046500028F0E4F819490860194901200870002081
:1046600027F092FA012021F01EFDFBE75549546125
:10467000736B00006D4E000853656E736F7254616A
:10468000736B0000373C00084E6574776F726B5493
:1046900061736B00F10900084D5154545461736B00
:1046A0000000000071330008446F675F7461736B32
:1046B00000000000610C00082C0000201800002001
:1046C0001400002010B54FF0E020006928F098F8A1
:1046D000012803D0BDE8104027F0DEBC10BD00006B
:1046E00030B593B030216846FBF72CFE14210CA89E
:1046F000FBF728FE1E480025016841F0805101604B
:10470000006800F0805011901A48016841F440415F
:1047100001600068022400F4404011900D200090D8
:104720004FF48030019001200290CDE9050480050E
:1047300007900C2008906020CDE9090404200B901C
:104740006846FDF787F908B172B6FEE70CA90F209D
:1047500081E831004FF48050CDE90F0503210CA80A
:10476000FDF76CF8002801D072B6FEE713B030BD3B
:1047700040380240007000400248016841F4700176
:104780000160704788ED00E00148FEF784B8000042
:104790002C0500200148FEF77EB80000C40600206A
:1047A000F0B502681F4B204C204D214E4FF0804C3D
:1047B000984207D0604505D0A04203D0A84201D05E
:1047C000B04203D122F070074A683A43984210D0B1
:1047D00060450ED0A0420CD0A8420AD0B04208D00A
:1047E000144CA04205D0144CA04202D0134CA0425D
:1047F00003D122F44074CA6822434C6922F080023B
:1048000022438C68C4620C688462984201D10969B1
:104810000163016841F0040101600121416102600E
:10482000F0BD00000000014000040040000800400E
:10483000000C00400040014000440140004801409D
:1048400010B5846842EA032224F47F440A432243D9
:10485000826010BD826822F070020A4342F00701B4
:104860008160704710B5036A046A24F00104046291
:10487000846924F0F00444EA021423F00A020A4393
:104880008461026210BD10B5036A046A24F010044A
:104890000462846923F0A00324F4704444EA0232E1
:1048A00043EA01118261016210BD0000F0B50546C6
:1048B00085B00C46B12000F093F80746C12000F007
:1048C0008FF8064603463A462AA1684600F066FB82
:1048D0006846FBF754FD82B21E2369462948FEF75D
:1048E000EFFA322F32D940F6B83086422ED2012666
:1048F00027F094FF24490122086011022348FCF7A5
:10490000E7FD2348067000F065F8064600F065F8FC
:10491000BE38C0EB801101EB002040F2AE6190FB8D
:10492000F1F0AA3E06EB0611C1EB062140F2C2628D
:1049300091FBF2F1A0F23F1009B2404200B2C1F186
:10494000EF010AB2002804DA002007E0002005B0D9
:10495000F0BDB0F5A07F01DB40F23F10002A01DA84
:10496000002202E0F02A00DBEF22288022800120D2
:10497000EDE700007A313D2564207A323D25640D53
:104980000A000000BC0500201800002000000240C2
:104990001400002010B5012291020548FCF798FD93
:1049A0000A20FCF793FCBDE81040D02000F018B8B6
:1049B0000004024001B582B064200090012301AAE6
:1049C00002A90348FDF73DFD9DF804000EBD00005F
:1049D0007C040020D02000F003B89020AFF30080CA
:1049E00070B50F4D0446012240212846FCF770FDAA
:1049F0002E15002231462846FCF76AFD2046FFF7B7
:104A0000D9FFFF20FFF7D6FF0402FF20FFF7D2FFF8
:104A10000443012231462846FCF75AFD200970BDA7
:104A20000004024010B5806B0021C185FEF726F816
:104A300010BD70B5846B2068406994F84110C0F3D4
:104A4000C0100025212904D118B1E584204600F0CA
:104A50008EF82068406994F84210C0F38010222933
:104A600004D118B1E585204600F05AF8606C40F09A
:104A7000100060642046FEF701F870BD10B50146D5
:104A8000806B096809684FF00002C9052ED4C28501
:104A900001680C3151E8003F23F4807341E8003491
:104AA000002CF5D10168143151E8003F23F00103D7
:104AB00041E80034002CF5D10168143151E8003F81
:104AC00023F0400341E80034002CF5D1202180F888
:104AD0004210016B012909D101680C3151E8003FF6
:104AE00023F0100341E80034002CF5D14263016B40
:104AF000012902D0FEF7E2F910BD818DFDF7A2FF7A
:104B000010BD10B5806B01214163016B012902D0FA
:104B1000FEF7D5F910BD818D4908FDF793FF10BD53
:104B200001680C3151E8002F22F4907241E8002313
:104B3000002BF5D10168143151E8002F22F0010259
:104B400041E80023002BF5D1016B012909D101684F
:104B50000C3151E8002F22F0100241E80023002B15
:104B6000F5D1202180F842100021016370470168CF
:104B70000C3151E8002F22F0C00241E80023002B45
:104B8000F5D1202180F84110704708B590F8421007
:104B9000222901D0022008BD82684FF480539A4236
:104BA00001D1016921B1816A9A421BD04AB10AE060
:104BB0000268816A5268C2F308020A80816A891C0D
:104BC00008E0026972B10268526802F07F020A705E
:104BD000816A491C8162C18D491E0904090CC18585
:104BE00003D01BE002685268F1E70168CA6822F04E
:104BF0002002CA600168CA6822F48072CA60016833
:104C00004A6922F001024A61202180F84210002105
:104C10004163026B012A03D0FEF750F9002008BD62
:104C2000016301680C3151E8002F22F0100241E8C5
:104C30000023002BF5D101680A68D20602D50A6864
:104C400049680091818DFDF7FDFEE7E770B50446E8
:104C500000680169E26821F4405111430161216952
:104C6000A068E26908436169114308432168CA6882
:104C700049F20C639A430243CA6020684169A26901
:104C800021F440711143416131492068884202D0CA
:104C90003049884202D1FCF79BFE01E0FCF788FE18
:104CA000E2690023192164253226B2F5004F6268BB
:104CB00028D0A0FB0101930F9200FBF7EBFA01460D
:104CC000B0FBF5F06FF01802504301EB800006EBEB
:104CD0000010B0FBF5F000F0F002B1FBF5F002EBD4
:104CE0000012B1FBF5F06FF01803584301EB8000A0
:104CF00006EB0010B0FBF5F000F00F002168104447
:104D0000886070BDA0FB010192185B41FBF7C2FAFD
:104D10000146B0FBF5F00201B1FBF5F06FF01803AE
:104D2000584301EB800006EBC000B0FBF5F000F04B
:104D3000F80002EB4002B1FBF5F0584301EB8000B4
:104D400006EBC000B0FBF5F000F00700D6E700006E
:104D5000001001400014014038B58162044682858C
:104D6000002013466064222284F84220E56B1F4A2B
:104D7000EA63E56B1E4A2A64E56B1E4AEA64E26B4D
:104D800010650A462168E06B091DFCF767FA30B12F
:104D900010206064202084F84200012038BD206883
:104DA000016840680090206948B120680C3050E8E4
:104DB000001F41F4807140E80012002AF5D12068FC
:104DC000143050E8001F41F0010140E80012002AB1
:104DD000F5D12068143050E8001F41F0400140E850
:104DE0000012002AF5D1002038BD00007D4A0008DD
:104DF000034B0008334A00082DE9F843984617464C
:104E00000D460446089E24E0701C22D0FCF766FB89
:104E1000A0EB0800B0421AD8CEB12068C16849079B
:104E200017D5802D15D0402D13D00168C94309072F
:104E30000FD401680025406800902046FFF770FEFF
:104E40000820606484F840500120BDE8F883032006
:104E5000FBE72068006835EA000004D00020B84273
:104E6000D2D00020F1E70120F9E700000EB5FEF7EF
:104E700079F8FFF78FFD17F083F91DF0F7FA1DF0B1
:104E800017FB21F0BBFA274CA06012F009FC27F0B9
:104E9000C5FCDFF894A00746FF264FF0FF354FF41E
:104EA00080794FF47A78207801280ED127F0B6FC6B
:104EB0006168401A42F21071884206D300224946C6
:104EC0005046FCF705FB002020700022694660690F
:104ED00027F0ACFA012803D19DEC030A21F088FDEC
:104EE0006078B0420DD06678607821F035FE27F00A
:104EF00095FC6060012249465046FCF7E9FA012022
:104F0000207027F08BFCC11BB1FBF8F0A84202D047
:104F1000054621F049FE1FF02BFF052026F00EFE6E
:104F2000C1E7000014000020000002400148FDF726
:104F3000A7BD0000740500200148FDF7A1BD0000D9
:104F4000BC050020FEE700000FB4054B10B503A917
:104F5000044A029802F088F810BC5DF814FB0000C7
:104F6000EB1801084C0300200FB47CB50C0009AD10
:104F700001D0611E00E00021CDE90001064B6A4628
:104F80002946089802F070F8002C02D0009A0021FF
:104F900011707CBC5DF814FB6F7700080FB4084BF0
:104FA00010B504A902AA039802F05EF8044602A90B
:104FB000002002F0E7FB204610BC5DF814FB000067
:104FC000857700080907090E002804DB00F1E020BE
:104FD00080F80014704700F00F0000F1E02080F826
:104FE000141D704702E008C8121F08C1002AFAD138
:104FF00070477047002001E001C1121F002AFBD159
:10500000704770B5044600256FF02F0608E0206851
:10501000411C2160007805EB850106EB4101451834
:105020002068007800F036FC0028F0D1284670BDDA
:105030002DE9FF5F2DED020B2DED0A8B86B0B0EE52
:10504000408AF0EE608A53EC182B51EC180BDDE926
:105050002058229EFBF7A2FB11D19FEDCD0B51EC06
:10506000180B53EC102BFBF7B1FB08D39FEDCA0BC9
:1050700051EC180B53EC102BFBF790FB11D2CDE940
:10508000005812AC029694E80F00B0EE480AF0EE19
:10509000680A00F089FA06B0BDEC0A8B06B0BDE8DC
:1050A000F09F9FEDBF0B51EC180B53EC102BFBF74F
:1050B00075FB08D24FF0010B51EC180B81F0004149
:1050C00041EC180B01E04FF0000B70059FEDB6BBF3
:1050D00000D4062518EE900AB54A8DED008BC0F37A
:1050E0000A54C0F31300104301909DED000B4FF0E4
:1050F000000A9FEDB01B51EC100B53EC112BA4F2E6
:10510000FF34FBF7FBF99FEDAD1B53EC112BFBF7C5
:10511000FBF941EC190B2046FBF7D7FA9FEDA91BD1
:1051200053EC112BFBF7F0F99FEDA81B53EC112B5F
:10513000FBF743F953EC192BFBF73FF9FBF7E3FAC5
:105140000446FBF7C2FA07469FEDA21B009153EC01
:10515000112BFBF7D9F99FEDA11B53EC112BFBF79A
:105160002CF9FBF7D0FA8146FBF7AFFA9FED9D1BB8
:1051700053EC112BFBF7C8F941EC190B009941ECEA
:10518000107B9FED9A1B51EC100B53EC112BFBF78E
:10519000BBF953EC192BFBF7B1F941EC190B53ECAC
:1051A000192BFBF7B1F941EC1A0B4FEA095040F209
:1051B000FF3100EB01519FED8F0BCDE900A153ECC6
:1051C000102B51EC1A0BFBF711FA53EC1B2BFBF7CE
:1051D000F4F841EC100B51EC1A0B53EC102BFBF7CD
:1051E00005FA9FED861B53EC112BFBF7E6F841EC1B
:1051F000100B51EC1A0B53EC102BFBF7F7F953EC97
:10520000192B41EC1A0B9FED7FCB51EC1C0BFBF7DC
:1052100075F953EC1A2BFBF7D0F841EC1A0B53EC51
:105220001C2B51EC190BFBF76FF953EC1A2BFBF706
:10523000DDF99FED761B53EC112BFBF7BEF89DEDCE
:10524000001B53EC112BFBF75FF941EC190B51ECF0
:10525000180B8DED009B53EC192BFBF79FFA08D22E
:1052600053EC1B2B51EC190B641EFBF7BFF9CDE976
:10527000000104F16300C72801D2042700E00527DC
:10528000300520D59FED630B51EC180B53EC102B20
:10529000FBF79CFA13D89FED610B51EC180B53EC04
:1052A000102BFBF77BFA0AD2A54202DD2D1B6D1EE7
:1052B00000E00025002746F480663C4603E015B177
:1052C000700500D56D1EB84502D9A8EB070000E0B7
:1052D00000208146B00702D50FB14FF000094CB154
:1052E0009DED000B51EC180B53EC102BFBF77EF9E6
:1052F00041EC180BDDF850A0BBF1000F05D051ECCC
:10530000180B81F0004141EC180B26F40060009569
:10531000CDE901900DF1480BB0EE480A9BE80F0073
:10532000F0EE680A00F040F9054617B305F10109EF
:105330002A46B00601D5452000E06520DDE912517E
:10534000159BA84700200A220521CDE902207F1ED7
:10535000CDE90471E00F002C00DA6442CDE9004091
:10536000DDE912014A46159B01F0C2FD0546B00772
:1053700007D40AE02A46DDE912416D1C2020159B66
:10538000A047A5EB0A014145F4D3284683E6000077
:10539000FFFFFFFFFFFFEF7FFFFFFFFFFFFFEFFFBD
:1053A0000000000000000000000000000000244099
:1053B0000000F03F000000000000F83F61436F6311
:1053C000A787D23FFB799F501344D33FB3C8608B6C
:1053D000288AC63F71A379094F930A400000000054
:1053E0000000E03FEF39FAFE422EE63F1655B5BB0E
:1053F000B16B02400000000000002C4000000000E3
:105400000000184000000000000000400000000004
:105410000000F03F2D431CEBE2361A3F0000000075
:1054200080842E412DE9FF5F82B00021DDE9043048
:10543000020DDDF840B0034318D044F61050A2F23C
:10544000FF3242431514119801281FD0A5EB0B0021
:10545000401C5FEA000A4FF000064E4FDFF838911B
:10546000B046504615D5CAF1000413E01198012446
:105470004AA3012801D16FEA0B010298119AC0E9F1
:105480000031C0E9024206B0BDE8F09FCBF1000058
:10549000DFE704460021404A491842EB0450CDE9B9
:1054A000001012E0E00707D032463B46404649462E
:1054B000FBF72AF88046894632463B461046194695
:1054C000FBF722F806460F466410002CEAD1DDE90E
:1054D0000401DDE90023BAF1000F06DAFBF714F846
:1054E00042464B46FBF710F805E0FBF77FF84246D3
:1054F0004B46FBF77BF804460E460022284BFBF791
:1055000065F903D84FF0FF30014607E00022254B34
:1055100020463146FAF751FFFBF714FA102409E050
:10552000002C0ADB0A220023FAF7B4FE039B303278
:105530001A55641E50EA0102F2D1641C039AC4F1A8
:1055400011031444119A012A03D0012208430DD1FA
:105550000AE0084304D000204FF0110B119072E7CD
:10556000A3EB0B056D1E0DE05B4504DD4FF0000263
:1055700005F1010504E003DA4FF00002A5F1010591
:10558000002AECD002981199C0E90231C0E9004527
:1055900079E70000000014400000F03F30000000F8
:1055A0000000F0430000E03F2DE9FF5F2DED020B0E
:1055B0002DED068B8CB0B0EE408AF0EE608ADDE90E
:1055C00023759FEDA19B002453EC182B51EC180B75
:1055D000DDF88880FBF7E2F802D003209CA10AE006
:1055E0009FED9C0B51EC180B53EC102BFBF7D6F8EE
:1055F00009D2042099A1CDE90010CDE9027514ACBF
:1056000094E80F001DE19FED970B51EC180B53EC44
:10561000102BFBF7DBF807D2680702D5042093A113
:10562000E9E7032093A1E6E79FED930B51EC180BFC
:1056300053EC102BFBF7CAF808D39FED910B51ECFC
:10564000180B53EC102BFBF7A9F812D2CDF8008001
:10565000CDE9017514ACB0EE480A94E80F00F0EE05
:10566000680AFFF7E5FC0CB0BDEC068B06B0BDE8A0
:10567000F09F4FF0000B53EC192B51EC180BFBF77C
:105680008DF807D24FF0010B51EC180B81F000415F
:1056900041EC180B680501D44FF006080DF1100A13
:1056A000794E9FED7A9BB8F1090F07D930210AF89E
:1056B0000410641CA8F10108202CF1D351EC180B44
:1056C000FBF721F88146FBF700F853EC182BFAF7AB
:1056D00018FF41EC100B06EBC800009090ED001B8A
:1056E00051EC100B53EC112BFAF70EFF41EC1A0B97
:1056F000FBF728F80646FAF7F9FF53EC1A2BFAF7EE
:1057000000FF41EC1A0B53EC192BFBF75FF813D297
:10571000761C3046FAF7EAFF41EC100B009890ED4A
:10572000001B51EC100B53EC112BFBF74FF810D86A
:10573000002609F101090CE053EC192B51EC1A0B6E
:10574000FBF72CF805D306F00100401E304200D1D3
:10575000761CB8F1000002D00A22514625E04846E6
:10576000FAF7B3FF53EC182BFAF7CBFE41EC180B0A
:1057700053EC192BFBF72AF806D953EC192B51ECF3
:10578000180BFBF723F81FD25FEAC9701CD009F190
:10579000010919E0B6FBF2F302FB1363B6FBF2F664
:1057A00030330B55401E641C2EB1202CF2D31BE06D
:1057B0000A55641C00E03022202C15D2401EF7D27E
:1057C0002E200AF80400641C0A205246202C0BD21A
:1057D00099FBF0F300FB13913031115599FBF0F177
:1057E000641C5FEA0109F1D1A80711D4E8070FD0C2
:1057F0002FB105F00C0050EA0B0000D07F1E3020C6
:105800005146BC4204D2202C13D20855641CF8E740
:10581000202C0ED2BBF1000F01D02D2106E068072D
:1058200001D52B2102E0280703D520210AF8041016
:10583000641CCDF800A00395CDE9014714AE96E8AD
:105840000F0001F0DAFB0EE700000000000000008E
:105850006E616E00FFFFFFFFFFFFEFFF666E692DB9
:1058600000000000FFFFFFFFFFFFEF7F666E692B68
:1058700000000000666E69000000000065CDCD41AB
:105880000000000065CDCDC128190308000000000C
:105890000000E03F3038092801D80120704700207F
:1058A0007047000010B54421074800F08DFE00222B
:1058B0001E2106481FF02AFA054CA06002F046FBA4
:1058C0000020207010BD000014540020018000084A
:1058D000EC0100202DE9F0470E468146174611469F
:1058E000304600F01CF94FF0FF3A00287DD000222E
:1058F0003946304600F0BFF800284FF0000075D15F
:10590000B6F90480B6F900305246A8EB0301491CF1
:105910000AFA81F10FFA81FAB6F906C0B6F9021057
:10592000ACEB010C0CF1010C02FA8CF2B7F802C0DE
:1059300012B2ACEB010C0FFA8CFCBCF1000F0EDDC7
:1059400063F30F0468F30F0501EB0C0061F31F44D0
:1059500060F31F45C9F800400120C9F80450B7F9A9
:1059600006107388CB1AD21A12B2002A13DDB6F9C8
:10597000063099420FDA338863F30F04B38861F37A
:105980001F4463F30F05114461F31F4509EBC00188
:10599000401C0C604D60B7F90220B6F902108A4233
:1059A00000DD1146B7F90630B6F90620934200DA59
:1059B0001A463B88B6F900C0521AA3EB0C031BB27F
:1059C00012B2002B10DD002A0EDD634463F30F05D5
:1059D0008B1863F31F456CF30F0409EBC00361F3ED
:1059E0001F441C605D60401C01E01AE017E0B7F93D
:1059F000043036889F1BAAEB070636B2002E0EDD58
:105A000063F30F0461F31F44334463F30F05114440
:105A100061F31F4509EBC001401C0C604D60BDE8FF
:105A2000F0875046FBE770B5B1F90030B2F900409D
:105A3000A34200DC23460380B1F90250B2F90240D0
:105A4000A54200DD2C464480B1F90460B2F904504F
:105A5000AE4200DA35468580B1F90610B2F906206B
:105A6000914200DB1146C1800120AB4201DC8C4237
:105A700000DD002070BDF8B50D460446B0F9000009
:105A8000B1F900101646884247DBB4F90210B5F9A7
:105A90000220914241DBB4F90410B5F9042091428F
:105AA0003BDCB4F90610B5F90620914235DC96B31B
:105AB000ADF800006088ADF802003246694628461D
:105AC00000F099F8002827D0A088ADF80000608881
:105AD000ADF8020032466946284600F08CF80028EE
